:0400000080312528FE
:100008007E1480318B1A0B1D0D2882318E2280318F
:1000180023280B1F19282100111E19282000111E42
:10002800192882316222803123280B1F23282100BE
:10003800911E23282000911E2328823178227E10C9
:1000480009008831B5284508031908007D2080314A
:10005800FD0020004308203E860087017D088100BE
:10006800C30A430B3D28F030200603190800C301DA
:10007800762802304306031D4428F130210639282A
:1000880004304306031D7128C30176208031220FF6
:100098005328230F53288B311F2380319428FE3097
:1000A8002206031D5E28FE302306031D5E28BE01BE
:1000B800BE0A08004008031D08002208AF002308F4
:1000C800AE004730C001C00ACA008230CB002F08FA
:1000D800CD002E08CC008B318C2B08304302031C3A
:1000E80008003B2820004508031908007D208031BE
:1000F8007628450803197D284708203E86000130E8
:1001080087000108F0000830C70A47020318C70132
:10011800210091122000C5032100911670080800E3
:10012800E5018C316F2480312000E40164088F31AF
:1001380046278031403FD800413FD900CE30590290
:100148004130031958020318D62864088F31402714
:100158008031D800413FD90004305902B130031929
:1001680058020318D628640809070907A03E860024
:10017800650809070907283E840001308500403FCB
:10018800803F413F813F640809070907A23E860076
:100198006508090709072A3E8400403F803F413F20
:1001A800813FE50A1030E40A6402031C9A286508B6
:1001B800031DE1286508BF000800650BE428DE2858
:1001C8006508013EBF00650809070907283E860043
:1001D800013087004030C03FCE30C13F6508090775
:1001E8000907263E8600C921803101308500003F7D
:1001F800D800013FD900650809070907203E840097
:10020800003F5802CA00013F593BCB00CE30CC0119
:10021800CD01C3218031C921003FDA00013FDB0055
:100228005A08DC005B08DD00DE01DF015C08F4022F
:100238005D08F53B5E08F63B5F08F73B6508090774
:100248000907263E8400003FE000013FE100650801
:1002580009070907223E8400003F6002F000013FC1
:10026800613BF100F201F301893175218031730896
:100278002000D1007208D0007108CF007008CE00AD
:100288005721403F4A07E200413F4B3DE3006508E4
:10029800090709072A3E8600013087006208C03F27
:1002A8006308C13F0800D301CD1F6729CA09CB09DC
:1002B800CC09CD09CA0A0319CB0A0319CC0A0319B8
:1002C800CD0AD301D30AD11F7629CE09CF09D00987
:1002D800D109CE0A0319CF0A0319D00A0319D10A82
:1002E8000130D306D401D501D601D7014D084C04FD
:1002F8004B044A040319AC29D201D20ACD1B89291F
:10030800CA35CB0DCC0DCD0D8129D435D50DD60DE3
:10031800D70D4D085102031D9B294C085002031D9F
:100328009B294B084F02031D9B294A084E02031CB8
:10033800A6294A08CE024B08CF3B4C08D03B4D08B3
:10034800D13B5414CD36CC0CCB0CCA0CD20B89291A
:1003580053080319BA29D409D509D609D709D40AE3
:100368000319D50A0319D60A0319D70A5708CD0065
:100378005608CC005508CB005408CA000800F701FD
:10038800F601F5004030F400080065080907090780
:10039800243E84000800013400340A3400346434F4
:1003A8000034E834033410342734203420344E34F5
:1003B8006F342E34253432346434203425343434C4
:1003C80064342D3425343434643420346D346D343D
:1003D80020347B34203425343534643420342C34B0
:1003E800203425343534643420347D342C340D34B1
:1003F8000A34003454346834653420346F34723429
:100408006934673469346E3461346C34203461344F
:100418006E34643420346134633474347534613434
:100428006C342034763461346C347534653420345B
:100438006134723465343A340D340A34003441344A
:1004480044343A3420342534643420344134443438
:100458004C3469346E346534613472343A3420343F
:100468002534643420344C3465346E346734743441
:1004780068343A3420342534643420346D346D348F
:100488000D340A3400345434683465342034433429
:1004980061346C3469342034763461346C347534A6
:1004A80065342034693473343A3420342534643460
:1004B80020346D346D340D340A3400340830690248
:1004C8000318752A4908E83E8600870101082300B9
:1004D8009A0020000830C90A49020318C901E90A2C
:1004E800080021001112080023009D1C7D2A1D12FE
:1004F8001D1620004608203E860001308700230094
:100508001908810020000830C60A46020318C601EF
:10051800C50A08000B1120006A08950067086804DE
:100528000319080068088A0067080A008231080071
:10053800B00A0319B10AA80A0319A90AB40A0319C7
:10054800B50A0800640080010131890BA72A00342C
:02055800080099
:10100200E4007C2788315902031D09285A08580236
:1010120003182F2864087C2788315A08CA005B0805
:10102200CB00CC01CD015808F0005908F100F201C3
:10103200F3016408023E8600403FDC00413FDD00D0
:101042005C08F4005D08F500F601F70175218831AE
:101052000F278831ED21883168278831E30157084D
:10106200FF3EDA00FF3003180030DB00803A803C9C
:10107200031D3D285A08630203189E282000762784
:1010820088318600FA268831031C9C28762788310D
:10109200043E8600FA26883103189C287627883178
:1010A2008600013087006308090709076407DB002F
:1010B200043E9D278831CA000131413F003BCB00ED
:1010C200CC01CD016308090709076407DC0086002B
:1010D20001308700403F5802F000413F593BF10088
:1010E200F201F3016308090709076407DD00023E04
:1010F20086006308090709076407DE00063E9D278C
:101102008831F4000131413F003BF500F601F7015F
:10111200752188310F278831ED2188316827883180
:1011220076278831023E06278831DF075C08E03DDA
:101132000030E13DE23DE30A302820009727883164
:10114200FC3E8600FA268831031CB0289727883196
:10115200FE3E0627DF005C08E000E101E2016008D4
:10116200D8005F08D70008002030840000308500D6
:101172002A308231A6228831A030840000308500D6
:1011820050308231A622883120308400013085001F
:101192004C308231A62288317E102000D0286F2662
:1011A20088318B170B179C30F0000230F1002B2393
:1011B20080319420883103303102E8300319300243
:1011C200031CE528B001B101803127208831E026D7
:1011D2008831F12088313123883190268831DC280A
:1011E2003329F126BD01BD0A0800BF2702302000C5
:1011F200BD00A801A9010800003029020830031926
:101202002802031C08000330BD0008001C25883199
:101212004F08AB004E08AA002B08FD002A08FC006C
:101222009A2188317D082000AD007C08AC0040087E
:10123200031926292D08CB002C08CA002F08CD003F
:101242002E08CC002C228831C0012D08FD002C086C
:10125200FC00422188317D08B3007C08B200F328EB
:10126200BD0108003D08003A0319F228013A0319AA
:10127200F628033A0319FD28013A031907293129EF
:1012820008003F08031908003F0B682922002808BC
:101292002000CA00220029082000CB00CC01CD0189
:1012A2007C08F0007D08F100F201F30122002A0817
:1012B200F4002B08F500F601F701752188310F279C
:1012C2008831ED214B08FD004A08FC0008003F0868
:1012D200D7007D08D9007C08D800283001205808A2
:1012E200FD005708FC000800F801F901FA01FB01B2
:1012F200701C83297408F8077508F93D7608FA3DD1
:101302007708FB3DF435F50DF60DF70DF336F20CCB
:10131200F10CF00C7308720471047004031D792936
:101322007B08F3007A08F2007908F1007808F000EF
:1013320008007D08803AD70080305702031DA32998
:1013420001307C020318A829FC01FD0108007C0879
:10135200F0007D08F100890D893B8909F200F30054
:10136200CE308131C3218831752188317308200044
:10137200DE007208DD007108DC007008DB00CE3090
:10138200CD01CC01CB004030CA007C08D7007D08DB
:10139200D8000030D81BFF30D900DA005708CA0243
:1013A2005808CB3B5908CC3B5A08CD3B5E08D100CC
:1013B2005D08D0005C08CF005B08CE00ED214D082F
:1013C200DE004C08DD004B08DC004A08DB005C084C
:1013D200FD005B08FC000800D201D301D401D50155
:1013E2004D084C044B044A040319232AD601D60A99
:1013F200CD1B002ACA35CB0DCC0DCD0DF829D23527
:10140200D30DD40DD50D4D085102031D122A4C08DF
:101412005002031D122A4B084F02031D122A4A08CA
:101422004E02031C1D2A4A08CE024B08CF3B4C0831
:10143200D03B4D08D13B5214CD36CC0CCB0CCA0C50
:10144200D60B002A5508CD005408CC005308CB0017
:101452005208CA0008004B08D7004A08D6001E30BE
:10146200F700F8014D08FA004C08F900E024883131
:10147200003078020A3003197702031C0800CE30CC
:1014820057024130031956020318080004304D0276
:10149200B13003194C02031808001E30F000F101AC
:1014A2004D08F3004C08F200BB2488317008D900C3
:1014B20010305902031C5F2A0F30D9006F24883183
:1014C200200059084627883119278831DA015A083D
:1014D200013EDB0010305B020318D42A5B0846276A
:1014E2008831403FCE00413FCF00CE304F024130E5
:1014F20003194E020318D22A5B08402788318A2733
:10150200883103194E020318D22A5E2788315827E0
:101512008831CE304F02413003194E020318D22ACD
:101522005A08402788318A27883103194E02031846
:10153200D22A5E2788315827883163278831342799
:101542008831031CB42A5A0809070907A23E8600FB
:101552008701403FCE00413FCF00712788313427B9
:1015620088310318D22AD801580809070907A03E72
:101572008600FF308701C03FC13F580809070907AD
:10158200A23E8600FF30C03FC13F1030D80A580249
:10159200031CB52A590809070907A03E8600192726
:1015A2008831DB0A6B2A0F30DA0A5A02031C682AD6
:1015B2001F238831DB015B0846278831403FCE007C
:1015C200413FCF00D2006327883186000108D30053
:1015D2005B0840278831CE00413FCF00D4007127FD
:1015E200883186000108D5005B0809070907F20067
:1015F2000430F3005230F401052388311030DB0A45
:101602005B0203180800DC2AF700F8017808F500ED
:10161200F60174087602031D102B73087502031875
:10162200080078087707F500860087010108F000B6
:101632007208780700258831F80A072BF201FF307B
:10164200F0007208002588314030F20A7202031855
:101652000800202B71082000E8007008E70008004D
:101662003E0803190800BE016F248831FE302000B5
:10167200CA008130CB008C238831E6019027883163
:10168200772388317108E3007008E20090278831DF
:10169200772388317108E5007008E4001D30E40703
:1016A2000318E50AD930CA008130CB006608CC00A5
:1016B200CD016308CF006208CE006508D10064083E
:1016C200D000660846278831403FD200413FD30010
:1016D200660840278831D400413FD5008C238831E9
:1016E2001030E60A6602031808003F2BF401F501E8
:1016F200701C7F2B7208F4077308F53DF235F30D69
:10170200F136F00C70087104031D792B7508F10095
:101712007408F00008004C30DA00200027278831D6
:10172200610803190800253A03199B2B61085F24FD
:1017320088318E2BDF01E001DC01842788316124AE
:101742008831031CC82BDF01E0010A30F000F101EF
:101752006008F3005F08F200772388317108E00027
:101762007008DF0084278831D03ED600FF3003188E
:101772000030D7005608DF075708E03DCA0A0319B0
:10178200CB0A84278831612488310318A62B2727A6
:101792008831003A03195E2C643A0319D42B0D3AAE
:1017A2000319D42B8E2B5A0886008701403FDD0097
:1017B200413FDE00DA0ADA0ADE1FE62B0330DC04E0
:1017C200DD09DE09DD0A0319DE0AE101E10A610829
:1017D2004C278831D800013FD9005E02031DF32B4C
:1017E20058085D02031CFA2B0530E10A6106031D4D
:1017F200E82B5F0860040319062C5C0803390319FF
:10180200062CFF30DF07031CE0036108D600D70176
:10181200D61BD7035708803AD8006008803A58028E
:10182200031D152C5F0856020318212C20006108A5
:10183200D600D701D61BD703DF025708E03B242C82
:101842002000DF01E0015F0860040319342C20301E
:101852005F248831FF302000DF07031CE0035F08AC
:101862006004031D282C5C08033903193B2C2D301E
:101872005F24883120006108DB00592C0A30F70010
:10188200F8015B084C278831F000013FF1005E0847
:10189200F3005D08F200BB2488317108FA00700879
:1018A200F900E02488317708303EE1005F24883176
:1018B2002000DB035B0F3F2C8E2B0800F100A32FCF
:1018C200F1003A30F001710203186D2C30307102D0
:1018D200031C6D2CF001F00A700C0800FC017C085E
:1018E20009070907F1000430F2007830F30190246F
:1018F20088317C08462788317908C03F7808C13F83
:101902007C0809070907A23E86007B08C03F7A08C7
:10191200C13F1030FC0A7C0203180800702CF6004C
:10192200F7017708F400F50173087502031D9B2C7B
:10193200720874020318080077087607F40086001C
:10194200870171087707A92488318100F70A922C50
:10195200F000640023009518AA2C700891009201EF
:101962003F30950515140310151803140030093D76
:1019720013080800F401F501700871040319DB2C47
:10198200F601F60AF11BC82CF035F10DC22CF43524
:10199200F50D71087302031DD02C70087202031C2E
:1019A200D72C7008F2027108F33B7414F136F00C74
:1019B200F60BC82C7508F1007408F00008007708CF
:1019C20078040319FB2CFB01FB0AF81BEB2CF735FF
:1019D200F80DE52C78087A02031DF12C77087902BC
:1019E200031CF72C7708F9027808FA3BF836F70C53
:1019F200FB0BEB2C7A08F8007908F7000800F100DD
:101A020023009518012D710891009201700893002E
:101A12003F309505200003108B1B03148B1323000A
:101A2200151555309600AA30960095141511200010
:101A320003188B1708003B08FB003A08FA00FC0168
:101A4200FD01682588317B08D1007A08D00036086C
:101A52003704031D312D5108CF005008CE00080075
:101A620008305102003003195002031C2C2D0030A3
:101A7200D004F030D1042C2DF601F70121000C1610
:101A820030268831F801F901F635F70D22008C165F
:101A9200542688315726883170087104031D761444
:101AA2005426883122008C1230268831F80A031914
:101AB200F90A00307902083003197802031C452D17
:101AC20021000C127708F5007608F4000800CC011A
:101AD200CD013326883130268831422688317B0871
:101AE200F5007A08F400F9258831740375040319A6
:101AF200A52DF401F501F925883174037504031944
:101B0200A52D33268831302688314226883101308E
:101B12007A04F4007B08F500F92588317403750412
:101B22000319A52D3D25883174082000CB00CA0178
:101B3200642688313D25883174082000CA0475085E
:101B4200CB0464268831B02D2000CC0A0319CD0ABB
:101B520000304D02053003194C02031C6A2D332656
:101B62008831302620004B08FB004A08FA000800A2
:101B7200FA01FB013326883130268831422688312A
:101B820020004B08F5004A08F400F9258831740357
:101B920075040319EC2D20004C08F4000030F50107
:101BA200F9258831740375040319EC2D20004F08C0
:101BB200F400F501F9258831740375040319EC2D3D
:101BC20020004E08F4000030F501F9258831740335
:101BD2007504031DF62DFA0A0319FB0A00307B0275
:101BE200053003197A02031CBB2D33268831302EAF
:101BF200F801F901F41F002E22000C16022E220019
:101C02000C123026883122008C16F435F50D302660
:101C1200883122008C12F80A0319F90A003079027D
:101C2200083003197802031CFB2D21000C16302604
:101C3200883122008C165426883157268831710843
:101C4200F7007008F6005426883122008C123026E4
:101C520021000C127708F5007608F4000800003223
:101C62000032080022000C123026883122008C1625
:101C72003026883122000C163026883122008C1240
:101C8200302E21000C128C1222000C1630268831C4
:101C920022008C163026883122000C123026883120
:101CA20022008C12302E003200320800F201F301C1
:101CB20020000C1E5F2EF201F20AF3017308F100FC
:101CC2007208F000080022000C123026883122002F
:101CD2008C163026883122008C12302E7D268831D7
:101CE200782688318D268831EC278831D42F7830B8
:101CF200210099009801080022008C010E30210079
:101D02008C00043023008C00083024008C00210059
:101D1200951322009D010800163097000800D12E6D
:101D22007D303C02031C982E0230C1000800B40131
:101D3200B501C10A08000030350228300319340207
:101D4200031C0800AA302100E0005530E100200009
:101D520033082100E200200032082100E3000430B1
:101D6200FB27C101BC0A080003303502E830031921
:101D72003402031C08002330CA008230CB002B0837
:101D8200CD002A08CC002D08CF002C08CE00330845
:101D9200D1003208D0008C23C1030800C101080021
:101DA2004108003A0319912E013A03199C2E033A75
:101DB2000319982E013A0319B52ECF2E08004208B6
:101DC2000319080069080319E02EC2034408E03E23
:101DD200860087010108A32788312000C40AE02E6B
:101DE2009030BA000430BB01B601B701B801B900A6
:101DF200080001308700403FDB00413FDC00590210
:101E0200031D08005B0858020800860001308700A5
:101E1200403FDB00413FDC005B0808007308200004
:101E2200D1007208D0007108CF007008CE000800FF
:101E32005608C03F5708C13F590809070907A23E83
:101E420086004C08C03F4D08C13F08004B08D70030
:101E52004A08D600CA0A0319CB0A8400570885002B
:101E62000008E10008008600403FD000413FD10059
:101E72004F085102031D08004E08500208000907CE
:101E82000907A23E8600403F080009070907A03E55
:101E9200860087010800D600CF30D701D635D70D8E
:101EA200560784008130573D8500003F08008600B8
:101EB200403FCE00413FCF0008005A0809070907FA
:101EC200A03E08005B0809070907A03E08004D086C
:101ED200E2004C08E1004B08E0004A08DF0008007D
:101EE2005B0809070907A23E0800630809070907FA
:101EF2006407DA000800860001308700403FDA00FC
:101F0200413FDB0008004A0884004B0885000008B6
:101F12000800CE00413FCF0004304F02B1346608C2
:101F2200F0001E30F101F200F30108005708090722
:101F320009076407DA000800840001308500403F89
:101F420000020800F00069080319A42F2100111AE9
:101F5200AE2F700823009A00BC2F111220004808EF
:101F6200E83E86008701700881000830C80A4802EE
:101F72000318C801E9032100111608006330FC00B0
:101F82000130FD003808FC043908FD04FD173B0848
:101F9200CB003A08CA00CC01CC0ACD017D08CF00A3
:101FA2007C08CE00B92D21009112111208302300B5
:101FB2009F0090309D0024309E0067309B009C0162
:101FC20020000830C801C901E900C601C701C501E6
:101FD2002100911608001508C03913389500CE303B
:101FE20020009500EA000B118B16AC30F000023095
:0E1FF200F1002B2BF0002000C200C4010800FB
:020000040001F9
:04000E00A4FFFFDE6E
:00000001FF
